:020000040800F2
:10000000081E0020290200085907000829040008DA
:1000100055070008370300083B13000800000000E4
:10002000000000000000000000000000350900088A
:100030003B03000800000000E90700084D0A000823
:10004000430200084302000843020008430200087C
:10005000430200084302000843020008430200086C
:10006000430200084302000843020008430200085C
:10007000430200084302000843020008430200084C
:10008000430200084302000843020008430200083C
:10009000430200084302000843020008430200082C
:1000A000430200084302000843020008430200081C
:1000B00043020008B90A0008390B0008430200088F
:1000C00043020008430200084302000843020008FC
:1000D00043020008390E0008C10E0008AD0F0008E9
:1000E00043020008430200084302000843020008DC
:1000F00043020008430200084302000843020008CC
:1001000043020008430200084302000843020008BB
:10011000910C00087D0D000843020008430200080E
:10012000430200084302000843020008430200089B
:10013000430200084302000843020008430200088B
:10014000430200084302000843020008430200087B
:100150004302000843020008430200089910000807
:10016000430200084302000843020008430200085B
:10017000430200084302000843020008430200084B
:10018000430200084302000800F002F800F03CF8C7
:100190000AA090E8000C82448344AAF10107DA45E2
:1001A00001D100F031F8AFF2090EBAE80F0013F0F8
:1001B000010F18BFFB1A43F001031847E03B000092
:1001C000003C0000103A24BF78C878C1FAD8520722
:1001D00024BF30C830C144BF04680C6070470000C1
:1001E0000023002400250026103A28BF78C1FBD840
:1001F000520728BF30C148BF0B6070471FB503F0DE
:1002000072FD1FBD10B510BD00F06AF81146FFF772
:10021000F5FF01F0BBFA00F088F803B4FFF7F2FF36
:1002200003BC01F08CF800000948804709480047EA
:10023000FEE7FEE7FEE7FEE7FEE7FEE7FEE7FEE796
:10024000FEE7FEE704480549054A064B70470000F3
:10025000510A00088901000808180020081E002023
:10026000081A0020081A0020704710B5203AC0F084
:100270000B80B1E81850203AA0E81850B1E81850A7
:10028000A0E81850BFF4F5AF5FEA027C24BFB1E8E4
:100290001850A0E8185044BF18C918C0BDE8104055
:1002A0005FEA827C24BF51F8043B40F8043B08BF5E
:1002B0007047D20728BF31F8023B48BF11F8012B25
:1002C00028BF20F8023B48BF00F8012B7047704759
:1002D000704770477047000000487047A41700201F
:1002E0007546FFF7F9FFAE4605006946534620F014
:1002F0000700854618B020B5FFF7A4FFBDE82040F1
:100300004FF000064FF000074FF000084FF0000BD1
:1003100021F00701AC46ACE8C009ACE8C009ACE884
:10032000C009ACE8C0098D4670470446AFF30080B1
:100330002046FFF772FF00BFFEE77047F0B50A46A0
:1003400000210023002400BF3DE0012505FA01F350
:10035000156805EA03049C4234D105684F00032662
:10036000BE40B543056015794E00B540066835437B
:1003700005601579012D02D01579022D16D18568F9
:100380004F000326BE40B543856055794E00B54009
:10039000866835438560456801268E40B5434560D3
:1003A000456896798E40B6B235434560C5684F00C2
:1003B0000326BE40B543C560D5794E00B540C6683A
:1003C0003543C560491C1029BFD3F0BDF0B50023EB
:1003D00000244D07ED0E02FA05F3CE1000F12005C2
:1003E00055F826504E07F70E0F26BE40B543CF10E6
:1003F00000F1200646F82750CE1000F1200555F8F0
:10040000265045EA0304CE1000F1200545F82640A9
:10041000F0BD0246002013690B400BB1012000E043
:10042000002070470183704700BFFEE71CB5012123
:10043000022000F0DBF94FF44070009001208DF8AD
:10044000040000208DF8060003208DF8050001202F
:100450008DF8070069460548FFF770FF0120044941
:1004600008600449C1F8A4021CBD00000004024059
:10047000A0824042008040422DE9F847044609AD81
:1004800095E8E010DDE90D895C48008800F4004043
:10049000B0F5004F7DD100200090584800780090C2
:1004A0005748407A552805D15548807A522801D1BD
:1004B000012000E000208246BAF1000F6AD05048C7
:1004C0000078DFF83CE19EF801E040EA0E2000B23F
:1004D00020804B488078DFF828E19EF803E040EA6E
:1004E0000E2000B2088046480079DFF814E19EF83B
:1004F00005E040EA0E2000B210804148C07ADFF8E3
:1005000000E19EF80CE040EA0E2000B218803C4862
:10051000407BDFF8ECE09EF80EE040EA0E2000B2EF
:1005200028803748C07BDFF8D8E09EF810E040EA2A
:100530000E2000B230803248807DDFF8C4E09EF8A3
:1005400017E040EA0E2000B238802D48007EDFF828
:10055000B0E09EF819E040EA0E2000B2ACF80000CE
:100560002748807EDFF898E09EF81BE040EA0E20E6
:1005700000B2A8F80000224890F82100DFF880E0DF
:100580009EF822E040EA0E2000B2A9F800001C48C4
:1005900001E030E02CE090F82300DFF864E09EF802
:1005A00024E040EA0E200FFA80FE0F98A0F800E049
:1005B000134890F82500DFF848E09EF826E040EA6E
:1005C0000E200FFA80FE1098A0F800E00C48807A08
:1005D000DFF830E0AEF8040000BF0A48008800F001
:1005E00040000028F9D00020DFF810E0AEF800004D
:1005F0005846BDE8F88700BFFBE700001400002064
:10060000D40F0020001001401CB50121112000F082
:10061000EDF81C20009000208DF8040003208DF8D8
:10062000050001208DF8070069460648FFF786FEA1
:100630000120009002208DF8070069460248FFF76C
:100640007DFE1CBD001002400000024010B50446B3
:1006500014B101202C4908702B480078002837D0AD
:1006600010212A48FFF7D5FE78B108212748FFF767
:10067000D0FE50B104212548FFF7CBFE28B101215F
:100680002348FFF7C6FE012822D10A2000F0B0FF60
:1006900000201D49087010211C48FFF7BAFE08B958
:1006A000012010BD08211948FFF7B3FE08B9022048
:1006B000F7E704211548FFF7ACFE08B90320F0E77F
:1006C00001211348FFF7A5FE01281BD10420E8E70C
:1006D00010210E48FFF79DFE012813D108210B4879
:1006E000FFF797FE01280DD104210848FFF791FE7E
:1006F000012807D101210648FFF78BFE10B9012020
:10070000014908700020CCE70200002000100240E0
:10071000000002401CB50121202000F067F84FF4D2
:10072000C060009001208DF8040000208DF80600C4
:1007300003208DF8050001208DF807006946044864
:10074000FFF7FCFD4FF4C0610148FFF76BFE1CBDD5
:100750000014024000BFFEE77047000070B50021A2
:1007600000230F22C4781CB3174C246804F4E064FF
:10077000C4F5E064C4F30721C1F10404E3B20A4103
:1007800044789C40E1B28478144021430C07210E48
:100790000E4C05786155047804F01F050124AC4027
:1007A00005786D11AD0005F1E025C5F8004109E0BF
:1007B000047804F01F050124AC40054D067876113D
:1007C00045F8264070BD00000CED00E000E400E0BC
:1007D00080E100E002490143024A116070470000D5
:1007E0000000FA050CED00E07047000029B1064A50
:1007F00012680243044B1A6004E0034A1268824301
:10080000014B1A60704700003038024029B1064A97
:1008100012680243044B1A6004E0034A12688243E0
:10082000014B1A60704700004038024029B1064A67
:1008300012680243044B1A6004E0034A12688243C0
:10084000014B1A607047000044380240F0B50021A7
:1008500000220024022500260223324F3F6807F0C1
:100860000C0121B1042905D0082937D105E02E4F0C
:10087000076036E02D4F076033E02A4F3F1F3F6887
:10088000C7F38056274F3F1F3F6807F03F036EB105
:10089000264FB7FBF3F7DFF88CC0ACF1040CDCF8A3
:1008A00000C0CCF3881C07FB0CF40CE01E4FB7FB18
:1008B000F3F7DFF870C0ACF1040CDCF800C0CCF347
:1008C000881C07FB0CF4174F3F1F3F68C7F3014715
:1008D0007F1C7D00B4FBF5F7076002E0124F076054
:1008E00000BF00BF0F4F3F6807F0F0010909104F2C
:1008F0007A5C0768D74047600A4F3F6807F4E051C9
:10090000890A0B4F7A5C4768D7408760054F3F687C
:1009100007F46041490B064F7A5C4768D740C760CF
:10092000F0BD0000083802400024F40000127A00F4
:1009300024000020704700000CB5002001900090BA
:100940003448006840F480303249086000BF3148C4
:10095000006800F4003000900198401C019000985D
:1009600018B90198B0F5A04FF1D12A48006800F4F9
:10097000003010B10120009001E0002000900098AC
:10098000012846D123484030006840F0805021497A
:10099000403108602048006840F440401E4908602B
:1009A0001C48083000681B49083108600846006888
:1009B00040F4004008600846006840F4A050086019
:1009C0001648091F0860081F006840F08070091F62
:1009D000086000BF0F48006800F000700028F9D0E0
:1009E00040F205700E4908600A480830006820F09F
:1009F00003000849083108600846006840F002001A
:100A0000086000BF03480830006800F00C000828A8
:100A1000F8D10CBD00380240007000400854400777
:100A2000003C0240042808D14FF0E021096941F060
:100A300004014FF0E022116107E04FF0E021096965
:100A400021F004014FF0E02211617047704700006F
:100A500010B51548006840F4700013490860134849
:100A6000006840F001001149086000200F4908317A
:100A700008600E4800680E4908400C4908600D489F
:100A8000091D0860081F006820F48020091F086005
:100A9000002006490C310860FFF74EFF4FF0006060
:100AA00001498039086010BD88ED00E0003802403F
:100AB000FFFFF6FE1030002410B50121054800F0BC
:100AC0008AF8012801D1044908700121014800F089
:100AD00073F810BD00040040000000207FB50546FB
:100AE0000C4601210220FFF791FE0295ADF804406B
:100AF0000020ADF80600ADF80C0001A90D4800F08B
:100B000085F8012211460B4800F076F801210948CA
:100B100000F055F81D208DF8000001208DF801002F
:100B200003208DF8020001208DF803006846FFF7CE
:100B300015FE7FBD0004004010B50121054800F0FE
:100B40004AF8012801D1044908700121014800F048
:100B500033F810BD00080040010000207FB50546B5
:100B60000C4601210420FFF751FE0295ADF8044028
:100B70000020ADF80600ADF80C0001A90D4800F00A
:100B800045F8012211460B4800F036F801210948CA
:100B900000F015F81E208DF8000001208DF80100EE
:100BA00003208DF8020001208DF803006846FFF74E
:100BB000D5FD7FBD00080040CA430282704721B1C5
:100BC000028842F00102028004E002884FF6FE73C0
:100BD0001A400280704730B50246002000230024EE
:100BE000158A05EA0103958905EA010413B10CB1E0
:100BF000012000E0002030BD1AB183890B438381BE
:100C000002E083898B4383817047000000220288C1
:100C1000184B98420ED0184B98420BD0B0F1804F31
:100C200008D0164B984205D0154B984202D0154B70
:100C3000984204D14FF68F731A404B881A43124BD7
:100C4000984207D0114B984204D04FF6FF431A4008
:100C50000B891A4302804B68C3620B880385054BDE
:100C6000984202D0044B984201D18B7A038601232B
:100C700083827047000001400004014000040040EE
:100C800000080040000C004000100040001400402C
:100C900010B540F22551344800F08DFA002861D09B
:100CA000314800F041FBC4B23048008800F40040F5
:100CB000B0F5004F33D1902C04D12D480078401C62
:100CC0002B4908702B4800781A281DDA284800782C
:100CD000022819D025480088C0F30D0026490C547D
:100CE00022480088401C2149088008460088C0F33B
:100CF0000D00B0F57A7F01DB002008801D480078E8
:100D0000401C1C4908702DE01848008848F6FF7107
:100D100008401649088000201549087022E0134851
:100D2000008800F48040B0F5804F0FD1022C03D032
:100D300000200E49088015E00C48008840F400406F
:100D40000A49088000200B4908700BE0902C06D15E
:100D50000648008840F480400449088002E00020F2
:100D60000249088010BD0000004C00401200002025
:100D7000210000201B000020EC0B002010B540F2E9
:100D80002551294800F017FA00284BD0264800F0DA
:100D9000CBFAC4B22548008800F40040B0F5004FFB
:100DA0001DD1234800782B283CDA20480088C0F366
:100DB0000D0020490C541D480088401C1B49088028
:100DC00008460088C0F30D00B0F57A7F01DB0020F3
:100DD000088017480078401C1549087022E0134825
:100DE000008800F48040B0F5804F0FD1512C03D023
:100DF00000200E49088015E00C48008840F40040AF
:100E00000A49088000200A4908700BE0552C06D1D9
:100E10000648008840F480400449088002E0002031
:100E20000249088010BD000000500040140000205E
:100E30001C000020D40F002010B540F225511D48A1
:100E400000F0B9F910B31B4800F06EFAC4B21A48AA
:100E5000008800F40040C8B91748008800F48040BA
:100E600060B10A2C03D000201349088021E0124809
:100E7000008840F40040104908801AE00D2C06D18B
:100E80000D48008840F480400B49088011E00A4872
:100E90000088C0F30D0009490C5407480088401C25
:100EA0000549088008460088B0F57A7F01DB0020FC
:100EB000088010BD001001400C000020340000200C
:100EC00010B540F22551344800F075F9002861D082
:100ED000314800F029FAC4B23048008800F40040DC
:100EE000B0F5004F33D1902C04D12D480078401C30
:100EF0002B4908702B4800781A281DDA28480078FA
:100F0000022819D025480088C0F30D0026490C544A
:100F100022480088401C2149088008460088C0F308
:100F20000D00B0F57A7F01DB002008801D480078B5
:100F3000401C1C4908702DE01848008848F6FF71D5
:100F400008401649088000201549087022E013481F
:100F5000008800F48040B0F5804F0FD1022C03D000
:100F600000200E49088015E00C48008840F400403D
:100F70000A49088000200B4908700BE0902C06D12C
:100F80000648008840F480400449088002E00020C0
:100F90000249088010BD0000004400400E000020FF
:100FA0001F000020190000201C04002010B540F292
:100FB0002551344800F0FFF8002861D0314800F096
:100FC000B3F9C4B23048008800F40040B0F5004FD7
:100FD00033D1902C04D12D480078401C2B49087047
:100FE0002B4800781A281DDA28480078022819D0E2
:100FF00025480088C0F30D0026490C54224800887B
:10100000401C2149088008460088C0F30D00B0F557
:101010007A7F01DB002008801D480078401C1C49B5
:1010200008702DE01848008848F6FF7108401649FE
:10103000088000201549087022E01348008800F459
:101040008040B0F5804F0FD1022C03D000200E4914
:10105000088015E00C48008840F400400A490880E8
:1010600000200B4908700BE0902C06D10648008840
:1010700040F480400449088002E0002002490880D2
:1010800010BD00000048004010000020200000209B
:101090001A0000200408002010B540F22551344801
:1010A00000F089F8002861D0314800F03DF9C4B261
:1010B0003048008800F40040B0F5004F33D1902C48
:1010C00004D12D480078401C2B4908702B4800782B
:1010D0001A281DDA28480078022819D025480088E7
:1010E000C0F30D0026490C5422480088401C2149B9
:1010F000088008460088C0F30D00B0F57A7F01DB58
:10110000002008801D480078401C1C4908702DE014
:101110001848008848F6FF710840164908800020EA
:101120001549087022E01348008800F48040B0F5AB
:10113000804F0FD1022C03D000200E49088015E00B
:101140000C48008840F400400A49088000200B4900
:1011500008700BE0902C06D10648008840F48040CF
:101160000449088002E000200249088010BD000008
:101170000014014016000020230000201D00002064
:10118000BC13002021B1828942F40052828104E024
:1011900082894DF6FF731A40828170470246002013
:1011A000B1F5007F00D100BF13880B400BB10120C7
:1011B00000E00020704770B502460024002300259F
:1011C000002040F66A16B14200D100BFC1F34215BB
:1011D00001F01F03012606FA03F3012D02D19689BF
:1011E000334006E0022D02D1168A334001E0968A90
:1011F00033400C12012606FA04F41688344013B169
:101200000CB1012000E0002070BDF0B503460024C1
:1012100000260025002040F66A17B94200D100BF21
:101220001846C1F3421401F01F06012707FA06F51C
:10123000012C01D10C3004E0022C01D1103000E06F
:1012400014301AB107682F43076002E00768AF4304
:101250000760F0BD2DE9FF4705460E460024A14674
:1012600000BFA046B08900B100BF2C8A24F44054CE
:10127000F08804432C82AC8941F20C608443B0882E
:1012800031890843718908430443AC81AC8A24F452
:101290004074B0890443AC826846FFF7D7FA20480F
:1012A000854202D01F48854202D1DDF80C9001E052
:1012B000DDF80890A88900F4004040B109EBC900AE
:1012C00000EB091031684900B0FBF1F707E009EBCA
:1012D000C90000EB091031688900B0FBF1F7642008
:1012E000B7FBF0F004012009642101FB1078A88904
:1012F00000F4004040B1322000EBC800B0FBF1F038
:1013000000F00700044308E0322000EB08106421DD
:10131000B0FBF1F000F00F0004432C81BDE8FF8723
:10132000001001400014014001468888C0F3080005
:101330007047C1F308028280704700BFFEE700BF1C
:101340007047000010B58CB02CA207CA09AB07C3C8
:101350002DA207CA06AB07C32EA207CA03AB07C359
:101360002FA207CA8DE8070000240DE009A8015D3F
:101370002E48FFF7DEFF00BF40212C48FFF70EFF8D
:101380000128F9D1601CC4B20A2CEFDB00240DE067
:1013900006A8015D2648FFF7CCFF00BF4021244886
:1013A000FFF7FCFE0128F9D1601CC4B20A2CEFDB68
:1013B00000240DE003A8015D1E48FFF7BAFF00BF3F
:1013C00040211C48FFF7EAFE0128F9D1601CC4B295
:1013D0000A2CEFDB00240DE01DF804101648FFF77F
:1013E000A8FF00BF40211448FFF7D8FE0128F9D11B
:1013F000601CC4B20A2CEFDB0CB010BD900260027E
:1014000001646000295A00009002600202646000DA
:101410007903000090026002036460004934000018
:101420009002600204646000D9B1000000440040F2
:1014300000480040004C00400014014010B58CB042
:101440002CA207CA09AB07C32DA207CA06AB07C364
:101450002EA207CA03AB07C32FA207CA8DE8070055
:1014600000240DE009A8015D2E48FFF762FF00BFD0
:1014700040212C48FFF792FE0128F9D1601CC4B22C
:101480000A2CEFDB00240DE006A8015D2648FFF7DB
:1014900050FF00BF40212448FFF780FE0128F9D10A
:1014A000601CC4B20A2CEFDB00240DE003A8015D30
:1014B0001E48FFF73EFF00BF40211C48FFF76EFEAD
:1014C0000128F9D1601CC4B20A2CEFDB00240DE026
:1014D0001DF804101648FFF72CFF00BF40211448E8
:1014E000FFF75CFE0128F9D1601CC4B20A2CEFDBC7
:1014F0000CB010BD9002600201D3300111930000C6
:101500009002600202D3300141CA000090026002E2
:1015100003D3300171FD00009002600204D330015A
:10152000E17800000044004000480040004C0040CA
:1015300000140140FEB501460A2600226D46C87817
:101540008DF8000088788DF8010048798DF8020048
:1015500008798DF80300C8798DF8040088798DF832
:101560000500487A8DF80600087A8DF80700C87AD9
:101570008DF80800887A8DF8090011E080230CE0CE
:10158000520002F4803008B10948424028781840DF
:1015900010B141F2210042405B10002BF0D16D1CD4
:1015A0003000A6F10107FEB2E8D11446A0B2FEBD9C
:1015B0002110010010B504466FF00400FFF732FA65
:1015C000E11704EB5171C1F3C701074A11701046CE
:1015D000007800EB4001C1EBC0104FF6FF7101EA4B
:1015E000C0000249088010BD040000200600002051
:1015F00070B504464FF4077094FBF0F0C6B24FF498
:10160000077094FBF0F100FB114085B205E04FF448
:10161000077000F009F8701EC6B2002EF7D115B1A0
:10162000284600F001F870BD0146114A12884A436D
:101630004FF0E0235A6100229A611A46126942F083
:1016400001021A6100BF4FF0E022106900F00102B0
:101650001AB100F48032002AF5D04FF0E02212696E
:1016600022F001024FF0E0231A6100229A617047D4
:101670000600002010B590B030A2D2E90131106808
:10168000D268CDE90D310F920C9030A191E80D0098
:10169000C96808AC0DC40B9130A30FCB04AC0FC4C8
:1016A00032A30FCB8DE80F0000240DE00CA8015DE4
:1016B0003248FFF73EFE00BF40213048FFF76EFD85
:1016C0000128F9D1601CC4B20E2CEFDB00240DE020
:1016D00008A8015D2A48FFF72CFE00BF40212848DA
:1016E000FFF75CFD0128F9D1601CC4B20E2CEFDBC2
:1016F00000240DE004A8015D2248FFF71AFE00BF98
:1017000040212048FFF74AFD0128F9D1601CC4B2EE
:101710000E2CEFDB00240DE01DF804101A48FFF733
:1017200008FE00BF40211848FFF738FD0128F9D115
:10173000601CC4B20E2CEFDB10B010BD9002680428
:101740000140600006000000229900009002680439
:101750000240600006000000A04100009002680402
:101760000340600006000000C1F900009002680418
:10177000044060000600000085E0000000440040D6
:1017800000480040004C004000140140F0B0002030
:101790006F906E906D906C906B904FF4FA606A90C1
:1017A0000020699068906790669000BF6390629097
:1017B000619060905F905E905D905C9000BF00BF14
:1017C00000BF00BF00BF00BF00BF00BF00BF00BF21
:1017D00000BF00BF00BF00BF3490339000BF00BF08
:1017E000A022FE4909A8FEF740FD4FF4A060FEF7D5
:1017F000F1FFA820FFF7DEFE4FF4E13001F096FB89
:101800004FF4E13001F0E8FB4FF4E13001F03AFC35
:101810004FF4E13001F08CFC4FF4E13001F0DEFCDC
:101820004FF4E13001F048FDFEF774FFFEF7ECFEE7
:1018300042F2CF01F920FFF751F942F2CF016320C4
:10184000FFF78CF9FEF7F2FD01F07CF86420FFF75A
:10185000CFFE00F0EBFF6420FFF7CAFEFFF70AFFA0
:101860006420FFF7C5FE01F049FAFCE3DC4800887C
:1018700000F4004000287AD0DA480078CD2809D159
:10188000D8484078EB2805D1D6488078D72801D1B0
:10189000012000E000206F906F98002868D0D148A8
:1018A000407A6990CF48807A6890CE48C07A679035
:1018B000CC48007B669069996A9848436421B0FBE4
:1018C000F1F06E9068996A9848436421B0FBF1F09A
:1018D0006D9067996A9848436421B0FBF1F06C9071
:1018E00066996A9848436421B0FBF1F06B90BD485B
:1018F000407900F00F0060B108280DD00B2804D00B
:101900000F2812D16E986E900FE06E9840426E9044
:101910000BE000206E9008E001F014F800F086FF64
:10192000FFF7A8FE01F0EAF900BF00BFAD488079DB
:1019300050B10B2805D00F2809D16D9840426D9009
:1019400005E06D986D9002E000206E9000BF00BF32
:10195000A448C07900F00F0070B108280FD00B2800
:1019600007D00F2814D16C9840426C9010E047E0EB
:1019700043E06C986C900BE000206C9008E000F065
:10198000E1FF00F053FFFFF775FE01F0B7F900BF6C
:1019900000BF9448007A00F00F0060B108280DD015
:1019A0000B2804D00F2812D16B986B900FE06B9826
:1019B00040426B900BE000206B9008E000F0C2FF0B
:1019C00000F034FFFFF756FE01F098F900BF00BFAA
:1019D0006E9828B16D9818B16C9808B16B9810B9D1
:1019E00001F018FA09E06B9B6C9A6D996E9801F002
:1019F00001F801F083F901F081F9002078490880AD
:101A00007948008800F44040B0F5004F31D100BF64
:101A100000BF7648007828B974484078042801D17E
:101A2000012000E000206F906F98F8B16F48807936
:101A30008DF88C016D48C0798DF88D016B48007A66
:101A40008DF88E016948407A8DF88F016748007DD6
:101A50008DF87C016548407D8DF87D016348807D6F
:101A60008DF87E016148C07D8DF87F0100205E49C0
:101A700008805F48008800F44040B0F5004F31D145
:101A800000BF00BF5B48007828B95A484078042856
:101A900001D1012000E000206F906F98F8B1554807
:101AA00080798DF888015348C0798DF889015148B3
:101AB000007A8DF88A014F48407A8DF88B014D48A5
:101AC000007D8DF878014B48407D8DF879014948BB
:101AD000807D8DF87A014748C07D8DF87B0100201C
:101AE000434908804448008800F44040B0F5004F66
:101AF00031D100BF00BF4148007828B93F48407845
:101B0000042801D1012000E000206F906F98F8B107
:101B10003A4880798DF880013848C0798DF8810184
:101B20003648007A8DF882013448407A8DF8830176
:101B30003248007D8DF870013048407D8DF871018C
:101B40002E48807D8DF872012C48C07D8DF8730180
:101B50000020294908802A48008800F44040B0F558
:101B6000004F31D100BF00BF2648007828B9254872
:101B70004078042801D1012000E000206F906F9888
:101B8000F8B1204880798DF884011E48C0798DF81D
:101B900085011C48007A8DF886011A48407A8DF834
:101BA00087011848007D8DF874011648407D8DF836
:101BB00075011448807D8DF876011248C07D8DF83E
:101BC000770100200E49088000205B909DF88F115E
:101BD0005B9808445B909DF88E1115E0FC3C000872
:101BE0000C000020340000200E0000201C04002007
:101BF000100000200408002016000020BC13002064
:101C000012000020EC0B00205B9801EB00205B90A1
:101C10009DF88D115B9801EB00205B909DF88C1175
:101C20005B9801EB00205B9000205A909DF88B118F
:101C30005A9808445A909DF88A115A9801EB00204E
:101C40005A909DF889115A9801EB00205A909DF8FE
:101C500088115A9801EB00205A90002059909DF865
:101C600087115998084459909DF88611599801EBAD
:101C7000002059909DF88511599801EB002059904A
:101C80009DF88411599801EB00205990002058903C
:101C90009DF883115898084458909DF882115898DF
:101CA00001EB002058909DF88111589801EB00201D
:101CB00058909DF88011589801EB00205890002012
:101CC00032909DF8D3103298084432909DF8D2108B
:101CD000329801EB002032909DF8D110329801EB40
:101CE000002032909DF8D010329801EB0020329005
:101CF000002031909DF8CF103198084431909DF824
:101D0000CE10319801EB002031909DF8CD10319824
:101D100001EB002031909DF8CC10319801EB0020B0
:101D200031904CF27C513298484340F2ED5190FB97
:101D3000F1F032904CF27C513198484340F2ED5131
:101D400090FBF1F031903198404231900020579053
:101D50009DF87F115798084457909DF87E11579829
:101D600001EB002057909DF87D11579801EB002062
:101D700057909DF87C11579801EB00205790002058
:101D800056909DF87B115698084456909DF87A110C
:101D9000569801EB002056909DF87911569801EB6A
:101DA000002056909DF87811569801EB002056902F
:101DB000002055909DF877115598084455909DF84E
:101DC0007611559801EB002055909DF875115598A6
:101DD00001EB002055909DF87411559801EB0020FF
:101DE0005590002054909DF87311549808445490D5
:101DF0009DF87211549801EB002054909DF87111D8
:101E0000549801EB002054909DF87011549801EB08
:101E1000002054901E20FFF7EBFB4BA84CA94DAAC5
:101E200048ABCDE90432CDE9061049A84AA94EAA2B
:101E30004FABCDE90032CDE9021050AB51AA52A907
:101E400053A8FEF719FBBDF9400101F0DBFC9FED43
:101E5000FE0B53EC102BCDE902019DED020B51EC72
:101E6000100B01F0E7FC9FEDFA0B53EC102BCDE9C2
:101E700004019DED040B51EC100B01F06BFBCDE95F
:101E800006019DED060B51EC100B01F089FA47900D
:101E9000BDF93C0101F0B6FC9FEDEB0B53EC102BB0
:101EA000CDE902019DED020B51EC100B01F0C2FCDB
:101EB0009FEDE70B53EC102BCDE904019DED040BD6
:101EC00051EC100B01F046FBCDE906019DED060B30
:101ED00051EC100B01F064FA4690BDF9380101F0A5
:101EE00091FC9FEDD90B53EC102BCDE902019DED38
:101EF000020B51EC100B01F09DFC9FEDD50B53EC48
:101F0000102BCDE904019DED040B51EC100B01F0F9
:101F100021FBCDE906019DED060B51EC100B01F004
:101F20003FFA4590BDF94C0101F06CFC9FEDCA0BE6
:101F300053EC102BCDE902019DED020B51EC100B7F
:101F400001F078FC9FEDC20B53EC102BCDE904019E
:101F50009DED040B51EC100B01F0FCFACDE90601EC
:101F60009DED060B51EC100B01F01AFA4490BDF9EF
:101F7000480101F047FC9FEDB80B53EC102BCDE965
:101F800002019DED020B51EC100B01F053FC9FED93
:101F9000B00B53EC102BCDE904019DED040B51EC7B
:101FA000100B01F0D7FACDE906019DED060B51ECBF
:101FB000100B01F0F5F94390BDF9440101F022FC4A
:101FC0009FEDA50B53EC102BCDE902019DED020B0B
:101FD00051EC100B01F02EFC9FED9D0B53EC102BE0
:101FE000CDE904019DED040B51EC100B01F0B2FAA8
:101FF000CDE906019DED060B51EC100B01F0D0F977
:102000004290BDF9280101F0FDFB9FED950B53ECCB
:10201000102BCDE902019DED020B51EC100B01F0EC
:1020200009FC9FED8B0B53EC102BCDE904019DEDCA
:10203000040B51EC100B01F08DFACDE906019DED7A
:10204000060B51EC100B01F0ABF94190BDF92401E6
:1020500001F0D8FB9FED820B53EC102BCDE9020170
:102060009DED020B00E0C7E351EC100B01F0E2FB29
:102070009FED770B53EC102BCDE904019DED040B84
:1020800051EC100B01F066FACDE906019DED060B4F
:1020900051EC100B01F084F94090BDF9200101F0E2
:1020A000B1FB9FED6F0B53EC102BCDE902019DEDC1
:1020B000020B51EC100B01F0BDFB9FED650B53ECD7
:1020C000102BCDE904019DED040B51EC100B01F038
:1020D00041FACDE906019DED060B51EC100B01F024
:1020E0005FF93F90BDF9340101F08CFB9FED5E0B71
:1020F00053EC102BCDE904019DED040B51EC100BBA
:1021000001F098FBCDE90601BDF9300101F07AFB41
:102110009FED550B53EC102BCDE904019DED040B05
:1021200051EC100B01F086FBCDE90601BDF92C0145
:1021300001F068FB9FED4C0B53EC102BCDE9040133
:102140009DED040B51EC100B01F074FBCDE9060181
:102150009DED3F0AB5EEC00AF1EE10FA17D23F9896
:1021600001F050FD9FED420B53EC102BCDE9040123
:102170009DED040B51EC100B01F044F9CDE9060183
:102180009DED060B51EC100B01F00AF93F904498BD
:102190003D9043983C9042983B9047983A9046989F
:1021A00039904598389041983790409836903F98AC
:1021B00035903F983E90FF208DF835008DF8340023
:1021C0008DF833008DF832009DF832103E980140B2
:1021D0008DF832109DF833103E9801EA20208DF8DA
:1021E00033009DF834103E9801EA20408DF8340009
:1021F0009DF835103E9801EA20608DF83500FF20EB
:102200008DF83A008DF839008DF838008DF83700D8
:102210009DF837005B9908408DF837009DF838101D
:102220005B9801EA20208DF838009DF839105B9802
:1022300001EA20408DF839009DF83A105B9801EAD8
:1022400020608DF83A0017E00000000000409F4039
:10225000000000000000E0409A9999999999634024
:102260000000000000806640000000000000F03F19
:102270000000000000807640FF208DF83F008DF8C0
:102280003E008DF83D008DF83C009DF83C005A99C9
:1022900008408DF83C009DF83D105A9801EA202036
:1022A0008DF83D009DF83E105A9801EA20408DF8C7
:1022B0003E009DF83F105A9801EA20608DF83F00DB
:1022C000FF208DF844008DF843008DF842008DF812
:1022D00041009DF84100599908408DF841009DF852
:1022E0004210599801EA20208DF842009DF84310D1
:1022F000599801EA20408DF843009DF84410599800
:1023000001EA20608DF84400FF208DF849008DF827
:1023100048008DF847008DF846009DF84600589912
:1023200008408DF846009DF84710589801EA202093
:102330008DF847009DF84810589801EA20408DF824
:1023400048009DF84910589801EA20608DF849002E
:10235000FF208DF84E008DF84D008DF84C008DF863
:102360004B009DF84B00319908408DF84B009DF8CB
:102370004C10319801EA20208DF84C009DF84D104A
:10238000319801EA20408DF84D009DF84E103198AB
:1023900001EA20608DF84E00FF208DF853008DF883
:1023A00052008DF851008DF850009DF85000329980
:1023B00008408DF850009DF85110329801EA202015
:1023C0008DF851009DF85210329801EA20408DF8A6
:1023D00052009DF85310329801EA20608DF85300A6
:1023E000FF208DF858008DF857008DF856008DF8B5
:1023F00055009DF85500579908408DF855009DF8F7
:102400005610579801EA20208DF856009DF8571075
:10241000579801EA20408DF857009DF858105798BA
:1024200001EA20608DF85800FF208DF85D008DF8DE
:102430005C008DF85B008DF85A009DF85A005699A3
:1024400008408DF85A009DF85B10569801EA20204C
:102450008DF85B009DF85C10569801EA20408DF8DD
:102460005C009DF85D10569801EA20608DF85D00D3
:10247000FF208DF862008DF861008DF860008DF806
:102480005F009DF85F00559908408DF85F009DF84A
:102490006010559801EA20208DF860009DF86110C9
:1024A000559801EA20408DF861009DF8621055981A
:1024B00001EA20608DF86200FF208DF867008DF83A
:1024C00066008DF865008DF864009DF864005499ED
:1024D00008408DF864009DF86510549801EA2020AA
:1024E0008DF865009DF86610549801EA20408DF83B
:1024F00066009DF86710549801EA20608DF8670027
:10250000FF208DF86C008DF86B008DF86A008DF857
:1025100069009DF869103A9801408DF869109DF89E
:102520006A103A9801EA20208DF86A009DF86B1035
:102530003A9801EA20408DF86B009DF86C103A98AB
:1025400001EA20608DF86C00FF208DF871008DF895
:1025500070008DF86F008DF86E009DF86E10399840
:1025600001408DF86E109DF86F10399801EA202017
:102570008DF86F009DF87010399801EA20408DF8B1
:1025800070009DF87110399801EA20608DF8710093
:10259000FF208DF876008DF875008DF874008DF8A9
:1025A00073009DF87310389801408DF873109DF8F2
:1025B0007410389801EA20208DF874009DF8751089
:1025C000389801EA20408DF875009DF8761038980B
:1025D00001EA20608DF87600FF208DF87B008DF8F1
:1025E0007A008DF879008DF878009DF878103D9884
:1025F00001408DF878109DF879103D9801EA20206F
:102600008DF879009DF87A103D9801EA20408DF808
:102610007A009DF87B103D9801EA20608DF87B00E0
:10262000FF208DF880008DF87F008DF87E008DF8FA
:102630007D009DF87D003C9908408DF87D009DF857
:102640007E103C9801EA20208DF87E009DF87F10D6
:102650003C9801EA20408DF87F009DF880103C985E
:1026600001EA20608DF88000FF208DF885008DF84C
:1026700084008DF883008DF882009DF882003B99DC
:1026800008408DF882009DF883103B9801EA2020D5
:102690008DF883009DF884103B9801EA20408DF866
:1026A00084009DF885103B9801EA20608DF8850034
:1026B000FF208DF88A008DF889008DF888008DF84C
:1026C00087009DF88700379908408DF887009DF8AE
:1026D0008810379801EA20208DF888009DF889102D
:1026E000379801EA20408DF889009DF88A103798C4
:1026F00001EA20608DF88A00FF208DF88F008DF8A8
:102700008E008DF88D008DF88C009DF88C00369928
:1027100008408DF88C009DF88D10369801EA202035
:102720008DF88D009DF88E10369801EA20408DF8C6
:102730008E009DF88F10369801EA20608DF88F008A
:10274000FF208DF894008DF893008DF892008DF89D
:1027500091009DF89100359908408DF891009DF801
:102760009210359801EA20208DF892009DF8931080
:10277000359801EA20408DF893009DF89410359823
:1027800001EA20608DF8940025480078012807D1DF
:10279000FEF7D8FD0120FEF72BFF0020204908702E
:1027A00020480078012818D1002064900FE009A982
:1027B0006498085C1C49888000BF1B48008800F0B2
:1027C00040000028F9D06498401CC0B2649064981E
:1027D0009F28ECDB0020134908700020FDF736FF2E
:1027E00065906598042808D100F0ACF800F01EF858
:1027F000FEF740FF00F082FA10E06598012802D150
:1028000000F0B0FD0AE06598022802D1FEF716FE3E
:1028100004E06598032801D1FEF72CFFFFF726B8E6
:1028200001000020000000200010014030B591B0F0
:1028300030A2D2E901311068D268CDE90E31109290
:102840000D9030A191E80D00C96809AC0DC40C9140
:1028500030A30FCB05AC0FC432A30FCB01AC0FC418
:1028600001250DE00DA8415D3248FEF762FD00BF75
:1028700040213048FEF792FC0128F9D1681CC5B20E
:102880000F2DEFDB01240DE009A8015D2A48FEF7BA
:1028900050FD00BF40212848FEF780FC0128F9D1F7
:1028A000601CC4B20F2CEFDB01240DE005A8015D14
:1028B0002248FEF73EFD00BF40212048FEF76EFC97
:1028C0000128F9D1601CC4B20F2CEFDB01240DE00C
:1028D00001A8015D1A48FEF72CFD00BF40211848F1
:1028E000FEF75CFC0128F9D1601CC4B20F2CEFDBB1
:1028F00011B030BD00900268040160600003000068
:1029000000BA090000900268040260600003000041
:102910000038D100009002680403606000030000EA
:102920000059690000900268040460600003000020
:10293000001D70000044004000480040004C004072
:10294000001401407FB50020039002900190009098
:1029500000250DE003A8415D2248FEF7EAFC00BF18
:1029600040212048FEF71AFC0128F9D1681CC5B2A5
:10297000042DEFDB00240DE002A8015D1A48FEF7EC
:10298000D8FC00BF40211848FEF708FC0128F9D107
:10299000601CC4B2042CEFDB00240DE001A8015D33
:1029A0001248FEF7C6FC00BF40211048FEF7F6FBB8
:1029B0000128F9D1601CC4B2042CEFDB00240DE027
:1029C0001DF804100A48FEF7B4FC00BF4021084877
:1029D000FEF7E4FB0128F9D1601CC4B2042CEFDB44
:1029E0007FBD00000044004000480040004C004013
:1029F000001401402DE9F04F93B006460F46904673
:102A000099460025B246BB46CDF84880CDF84490A3
:102A1000A6A1D1E90023D1E90201CDE90D23CDE939
:102A20000F01A6A30FCB09AC0FC4A8A3D3E90121C2
:102A30001868DB68CDE90713CDE90502A7A3D3E940
:102A40000012D3E90203CDE90303CDE90112FF200F
:102A50008DF83F008DF83E008DF83D008DF83C006C
:102A60009DF83C0000EA0A008DF83C009DF83D000E
:102A700000EA1A208DF83D009DF83E0000EA1A4059
:102A80008DF83E009DF83F0000EA1A608DF83F0087
:102A90000DA8FEF74FFD0546FF208DF841008DF88B
:102AA00040009DF8400028408DF840009DF841000E
:102AB00000EA25208DF84100FF208DF82F008DF8C9
:102AC0002E008DF82D008DF82C009DF82C0000EACA
:102AD0000B008DF82C009DF82D0000EA1B208DF8CE
:102AE0002D009DF82E0000EA1B408DF82E009DF869
:102AF0002F0000EA1B608DF82F0009A8FEF71AFDD1
:102B00000546FF208DF831008DF830009DF830002B
:102B100028408DF830009DF8310000EA25208DF81E
:102B20003100FF208DF81F008DF81E008DF81D006C
:102B30008DF81C009DF81C00DDF8488000EA0800B4
:102B40008DF81C009DF81D00DDF8488000EA182073
:102B50008DF81D009DF81E00DDF8488000EA184041
:102B60008DF81E009DF81F00DDF8488000EA18600F
:102B70008DF81F0005A8FEF7DDFC0546FF208DF847
:102B800021008DF820009DF8200028408DF82000BD
:102B90009DF8210000EA25208DF82100FF208DF806
:102BA0000F008DF80E008DF80D008DF80C009DF8CB
:102BB0000C00DDF8449000EA09008DF80C009DF847
:102BC0000D00DDF8449000EA19208DF80D009DF805
:102BD0000E00DDF8449000EA19408DF80E009DF8D3
:102BE0000F00DDF8449000EA19608DF80F0001A88D
:102BF000FEF7A0FC0546FF208DF811008DF81000AF
:102C00009DF8100028408DF810009DF8110000EA92
:102C100025208DF8110000240DE00DA8015D33483A
:102C2000FEF787FB00BF40213048FEF7B7FA0128C6
:102C3000F9D1601CC4B20E2CEFDB00240DE009A812
:102C4000015D2B48FEF775FB00BF40212848FEF7C9
:102C5000A5FA0128F9D1601CC4B20E2CEFDB0024C8
:102C60000DE005A8015D2348FEF763FB00BF40218E
:102C70002048FEF793FA0128F9D1601CC4B20E2C4B
:102C8000EFDB00240DE001A8015D1B48FEF751FBBE
:102C900000BF40211848FEF781FA0128F9D1601CD5
:102CA000C4B20E2CEFDB13B0BDE8F08F90026804C5
:102CB00001FF6000E803000051DB0000900268049F
:102CC00002FF600018FCFFFF2DB6000090026804B0
:102CD00003FF600018FCFFFF4C0E00009002680428
:102CE00004FF6000E8030000F6A20000004400407A
:102CF00000480040004C00400014014010B590B066
:102D000030A2D2E901311068D268CDE90D310F92BD
:102D10000C9030A191E80D00C96808AC0DC40B916E
:102D200030A30FCB04AC0FC432A30FCB8DE80F0040
:102D300000240DE00CA8015D3248FEF7FAFA00BF4E
:102D400040213048FEF72AFA0128F9D1601CC4B2AC
:102D50000E2CEFDB00240DE008A8015D2A48FEF7E9
:102D6000E8FA00BF40212848FEF718FA0128F9D1F7
:102D7000601CC4B20E2CEFDB00240DE004A8015D42
:102D80002248FEF7D6FA00BF40212048FEF706FA97
:102D90000128F9D1601CC4B20E2CEFDB00240DE039
:102DA0001DF804101A48FEF7C4FA00BF4021184865
:102DB000FEF7F4F90128F9D1601CC4B20E2CEFDB48
:102DC00010B010BD90026804014060000F000000C8
:102DD000B307000090026804024060000F0000008A
:102DE00031DF000090026804034060000F00000023
:102DF0005067000090026804044060000F0000006B
:102E0000147E00000044004000480040004C004098
:102E10000014014010B590B030A2D2E90131106821
:102E2000D268CDE90D310F920C9030A191E80D00E0
:102E3000C96808AC0DC40B9130A30FCB04AC0FC410
:102E400032A30FCB8DE80F0000240DE00CA8015D2C
:102E50003248FEF76EFA00BF40213048FEF79EF977
:102E60000128F9D1601CC4B20E2CEFDB00240DE068
:102E700008A8015D2A48FEF75CFA00BF40212848F7
:102E8000FEF78CF90128F9D1601CC4B20E2CEFDBDF
:102E900000240DE004A8015D2248FEF74AFA00BFB5
:102EA00040212048FEF77AF90128F9D1601CC4B20C
:102EB0000E2CEFDB00240DE01DF804101A48FEF77D
:102EC00038FA00BF40211848FEF768F90128F9D107
:102ED000601CC4B20E2CEFDB10B010BD9002680471
:102EE000014060000F0100000771000090026804BB
:102EF000024060000F01000085A9000090026804F4
:102F0000034060000F010000E4110000900268041B
:102F1000044060000F010000A008000000440040D1
:102F200000480040004C00400014014010B588B03B
:102F3000044601210846FDF759FC01211020FDF748
:102F400075FC072209212248FDF740FA07220A21D1
:102F50001F48FDF73BFA4FF4C060069002208DF841
:102F60001C008DF81D0000208DF81E0001208DF83A
:102F70001F0006A91648FDF7E1F902940020ADF8FC
:102F80000C00ADF80E00ADF81000ADF814000C20E8
:102F9000ADF8120002A90F48FEF75CF901210D48B7
:102FA000FEF7F0F825208DF8040003208DF80500C9
:102FB0008DF8060001208DF8070001A8FDF7CEFB73
:102FC000012240F225510348FEF71FF908B010BD59
:102FD000000002400010014010B588B004460121F5
:102FE0000846FDF703FC01214804FDF70FFC07220A
:102FF00002212248FDF7EAF9072203211F48FDF7C5
:10300000E5F90C20069002208DF81C008DF81D00BB
:1030100000208DF81E0001208DF81F0006A917481A
:10302000FDF78CF902940020ADF80C00ADF80E000D
:10303000ADF81000ADF814000C20ADF8120002A994
:103040000F48FEF707F901210D48FEF79BF82620EF
:103050008DF8040003208DF805008DF8060001208E
:103060008DF8070001A8FDF779FB012240F22551F8
:103070000348FEF7CAF808B010BD00000000024087
:103080000044004010B588B0044601210220FDF73D
:10309000ADFB01218804FDF7B9FB07220A21224874
:1030A000FDF794F907220B211F48FDF78FF94FF424
:1030B0004060069002208DF81C008DF81D00002055
:1030C0008DF81E0001208DF81F0006A91648FDF797
:1030D00035F902940020ADF80C00ADF80E00ADF803
:1030E0001000ADF814000C20ADF8120002A90F4832
:1030F000FEF7B0F801210D48FEF744F827208DF8BF
:10310000040003208DF805008DF8060001208DF8DD
:10311000070001A8FDF722FB012240F225510348D8
:10312000FEF773F808B010BD0004024000480040EC
:1031300010B588B0044601210420FDF757FB01219A
:10314000C804FDF763FB08220A212248FDF73EF977
:1031500008220B211F48FDF739F94FF44060069013
:1031600002208DF81C008DF81D0000208DF81E0037
:1031700001208DF81F0006A91648FDF7DFF802941C
:103180000020ADF80C00ADF80E00ADF81000ADF861
:1031900014000C20ADF8120002A90F48FEF75AF8EF
:1031A00001210D48FDF7EEFF34208DF804000320C7
:1031B0008DF805008DF8060001208DF8070001A8A4
:1031C000FDF7CCFA012240F225510348FEF71DF825
:1031D00008B010BD00080240004C004010B588B097
:1031E000044601210420FDF701FB01210820FDF721
:1031F000FDFA01210805FDF709FB08220C212B48E7
:10320000FDF7E4F8082202212948FDF7DFF8042041
:10321000069002208DF81C008DF81D0000208DF80E
:103220001E0001208DF81F0006A92148FDF786F831
:103230004FF48050069002208DF81C008DF81D0080
:1032400000208DF81E0001208DF81F0006A91748E8
:10325000FDF774F802940020ADF80C00ADF80E00F4
:10326000ADF81000ADF814000C20ADF8120002A962
:103270001048FDF7EFFF01210E48FDF783FF3520D1
:103280008DF8040003208DF805008DF8060001205C
:103290008DF8070001A8FDF761FA012240F22551DF
:1032A0000448FDF7B2FF08B010BD0000000802405E
:1032B000000C02400050004010B588B004460121C7
:1032C0004020FDF793FA01212020FDF7AFFA0822F4
:1032D00009212248FDF77AF808220E211F48FDF740
:1032E00075F84FF48440069002208DF81C008DF88C
:1032F0001D0000208DF81E0001208DF81F0006A97A
:103300001648FDF71BF802940020ADF80C00ADF84C
:103310000E00ADF81000ADF814000C20ADF812004E
:1033200002A90F48FDF796FF01210D48FDF72AFF7E
:1033300047208DF8040003208DF805008DF8060065
:1033400001208DF8070001A8FDF708FA012240F2DC
:1033500025510348FDF759FF08B010BD0018024081
:10336000001401401CB50BA103C9CDE900010024E4
:103370000DE01DF804100948FDF7DBFF00BF4021F8
:103380000648FDF70BFF0128F9D1601CC4B2052CDB
:10339000EFDB1CBDFFAA010400000000005000404C
:1033A00021F00042A2F16052B2F5801F01F000430B
:1033B00028BFD2F17F6C0BD95FEA001C43EAC2023E
:1033C00042EB507018BF704728BF20F001007047D3
:1033D000B2F5801FBCBF184670474FEA410C1CF580
:1033E000001F02D2084600F083BC70B500F0CCFA92
:1033F00000000089FFF7F6BF4FF00040A0F5800005
:103400007047000010B591EA030F48BF83F00043F6
:1034100000F11683841A71EB030C05D2121943EBE9
:103420000C03001B61EB0C01DFF824E14FEA11549F
:10343000A4EB135C1EEA430F18BF9EEA445F73D0EF
:1034400023EA0E03DCF1200E21EA045143F4801339
:1034500032D322FA0CFE10EB0E0023FA0CFE41EBE5
:103460000E01CCF1200E03FA0EFE10EB0E0051F10E
:103470000001B1F5801FCCF1200E32D201EB0451D6
:1034800012FA0EF2BDE8104058BF7047401C38BF1A
:103490005FEA420218BF7047002814BF20F0010005
:1034A00041F100014FEA410313F5001F38BF704797
:1034B000A1F1C04100F0B6BA012A43EB0302ACF11E
:1034C000200CDCF11F0E32BF4FF0000E23FA0CF37C
:1034D00010EB030041EB0451B4EB115FD0D0A1EB32
:1034E000045101F5801149085FEA300001EB0451F5
:1034F0000ED350F1000038BF12FA0EFE08D1BDE81D
:103500001040C9E7401C38BF5FEA4202CAD1C3E796
:10351000BDE810404FEA410313F5001F38BF704764
:10352000A1F1C04100F07EBA9EEA445F08D011EAE2
:103530005E0FBDE8104004BF01F00041002070475D
:10354000BDE8104070B500F01FFA00BF64FBBE3E3E
:103550000000E0FF2DE9C04130B4DFF8A0C23CEA32
:10356000111418BF3CEA131400F0EC8081EA030543
:103570001CEA111444EAD57418BF1CEA131500F0B4
:10358000C780A4EB05044FF0004545EAC12145EA98
:10359000C32341EA505143EA525304F17F749942E4
:1035A00004F500344FEAC0204FEAC22208BF90421F
:1035B00000F09C804FEA13650FF24016765D4FEAEB
:1035C000134506FB05F7C7F1807706FB07F74FEABF
:1035D000D737A7FB03687642C8F58038A7FB06CE2D
:1035E00038BFA8F1010807FB08E64FF0000EA6FB64
:1035F000028CE6FB03CEDCF1000CCEF1004E38BFAE
:10360000AEF1010EA6FB0C584FF000074FF000057D
:10361000E6FB0E87A1FB08C6A0FB07CE16EB0E0645
:1036200045F10005E1FB076515F1E04E7EBFA4F50D
:1036300080345FEA46066D4116F1800745F10005CA
:103640004FEA17274FEA066647EA0567A6F1DE4606
:10365000B6F1805F4FEA15251FD9384624F0010CDA
:1036600005EBC471BCF1FE6F01EB0C1102D8F0BC8C
:10367000BDE8008124425CBF01F5801E9EEAC47F44
:1036800002D4F0BCBDE80081244238D4F0BCA1F1E2
:10369000C041BDE8004100F0C5B94FEAD22242EA7C
:1036A00043524FEAD323A7FB02864FEAD02040EAD9
:1036B000415007FB03661EEA0E0F4FEAD12105FBBE
:1036C000026658BFA6EB0056B6EB00564FEA520E04
:1036D0004EEAC37E18EB0E0E56EB530EBDD518EB1B
:1036E00002085E417F1C55F10005B6E74FF48015D6
:1036F0004FF000074FF000064FF00008ADE7F0BCB8
:103700004FF0000001F1C04101F00041BDE800812F
:1037100011EA0C1F0CEA131500D00CE013EA0C1F81
:1037200000F025804FF00000F0BC81EA030101F0B9
:103730000041BDE80081F0BCBDE8004181EA030121
:1037400000F070B9F0BCBDE8004170B500F01CF9A4
:10375000097EFC3E00F007B881EA03014FF000004B
:1037600001F00041704781EA030100F05BB9F0BC51
:10377000BDE800414FF0000021497047FFFDFBF913
:10378000F7F5F4F2F0EEEDEBE9E8E6E4E3E1E0DE94
:10379000DDDBDAD8D7D5D4D3D1D0CFCDCCCBCAC806
:1037A000C7C6C5C4C2C1C0BFBEBDBCBBBAB9B8B72D
:1037B000B6B5B4B3B2B1B0AFAEADACABAAA9A8A820
:1037C000A7A6A5A4A3A3A2A1A09F9F9E9D9C9C9BEE
:1037D0009A99999897979695959493939291919099
:1037E0008F8F8E8E8D8C8C8B8B8A8989888887872A
:1037F0008685858484838382828181800000FF079F
:103800000000F87F10F0004248BF4042B0FA80F359
:1038100010FA03F10AD0C3F11D0303F580634FEAE8
:10382000415002EB035202EBD12170474FF00000F0
:1038300070470000DFF848C170B51CEA111E1EBFBA
:103840001CEA13159EEA0C0F95EA0C0F00F06F802E
:1038500081EA030423EA4C134EEAD47E21EA4C1198
:1038600041F4801143F48013AE44A1FB024CA0FB51
:103870000365AEF17F7E361955EB0C05A1FB034CB9
:103880004CF10003A0FB021C16EB0C06654153F142
:103890000003094218BF46F0010613F4007F0BD164
:1038A0004FEA03314FEA0530340341EA155140EA4B
:1038B00016506FF003020AE04FEAC3214FEAC52019
:1038C000F40241EA555140EA56506FF0020202EB11
:1038D0002E4201EB025585EACE710AD05FEA440C14
:1038E00018BF24F0004450F1000041F1000120EA2B
:1038F000D47040F2FE7C624500D270BDA84214BF75
:103900004FF080444FF04044002E08BF0024BEF129
:10391000806FA8BFA1F1C041BDE8704080F28280F5
:103920004FF0000001F1C04101F0004170479EEAF4
:103930000C0F0CEA131518BF95EA0C0F06D04FF0C8
:10394000000081EA030E0EF0004170BD00F01CF88B
:103950008900013E00F007B800F009B84FEA430CB7
:103960005FEA5C5C08D081EA030100F05BB84FEAD3
:10397000410C5FEA5C5CF6D14FF0000001497047F2
:103980000000FF070000F87F0EF1020E2EF0030E7C
:103990005EF8046B364205D4012A43EB030515F5A6
:1039A000001F12D8012841EB010C1CF5001F0CD898
:1039B0000ED14FEAD17C15F5001F0CEB4C0C0CF12D
:1039C000020C08BF4CEBD37C04E04FF0080C01E084
:1039D0004FEAD37C0CEB4C0526FA05F606F00706F9
:1039E000B6F1040C06D20EEB860CBDE870404CF02C
:1039F000010C6047DFE80CF0090B02024FF00041B8
:103A00004FF00000A1F5002170BD194610460128B5
:103A100051EB010418BFD4F5001484BF002001F05D
:103A2000004170BD0808A0F500114FEA3101704750
:103A300010B591EA030F48BF83F000433FF5EAACAD
:103A4000841A71EB030C07D212198CF0004C43EB73
:103A50000C03001B61EB0C01DFF8A4E14FEA1154E9
:103A6000A4EB135C1EEA430F18BF9EEA445F00F00C
:103A7000B08023EA6E03524221EA0451C3EB6E0385
:103A800038BF5B1EDCF1200E25D322FA0CFE10EBB2
:103A90000E0043FA0CFE41EB0E01CCF1200E03FAAE
:103AA0000EFE10EB0E0051F10001CCF1200E29D4D6
:103AB00012FA0EF201EB0451BDE8104058BF7047F6
:103AC000401C1CBFB2F1004F704700280CBF491CBE
:103AD00020F00100704712EB020E43EB030218BF07
:103AE0004FF0010E4EEA4202ACF1200CDCF11E0E4A
:103AF00054D943FA0CFE10EB0E0051F1FF31CCF11A
:103B00001E0ED5D50EF1010E12FA0EFE404141EB0C
:103B1000010101EB445C5FEA5C5C10D910EBDE70E4
:103B200001EB045138BFBEF1004FBDE8104018BF93
:103B3000704700280CBF491C20F00100704730D2AC
:103B40004FEAD42C11F5001124F400641BD0B1FA13
:103B500081F20B3AA41AA41ED2F12003914030FA4C
:103B600003F31943904001EBCC71002C01EB04519D
:103B7000BDE81040A8BF704701F1C0414FF0000000
:103B800001F000417047B0FA80F310FA03F100D160
:103B900010BDE41A173C4805C90AE4E701EB0451DB
:103BA00010BD491001EB0451BDE810404FEA300050
:103BB00002E04FF0000170474A0008BF0042F8D011
:103BC000B2F5001F28BF704701F000414FF0000020
:103BD00070479EEA445F07D011EA5E0FBDE81040CF
:103BE00004BF002100207047BDE8104070B5FFF70A
:103BF000CBFE00BF40DFF63E83F000411046704729
:103C00000000E0FF43004FEAD30C4FEA3C0C434076
:103C10001FBF40070CF1605113F0FE4F70471CF0BE
:103C2000006F03D100200CF0004170470CF00043FE
:103C300043EA507010B540EACC0000F00EF800BF27
:103C4000000000924FEA0001FFF7ECBE4FF0004188
:103C50004FF00000A1F5002170470EF1020E2EF08A
:103C6000030E5EF8044B244204D44FEA4102B2F141
:103C70007F4F11D84FEA4003B3F17F4F0CD80ED1DC
:103C80004FEAD07CB2F17F4F0CEB4C0C0CF1020CE4
:103C900008BF4CEBD17C04E04FF0080C01E04FEA88
:103CA000D17C0CEB4C0324FA03F404F00704B4F1C8
:103CB000040C06D20EEB840CBDE810404CF0010C55
:103CC0006047DFE80CF0070802024FF00040A0F563
:103CD000800010BD0846420018BFD2F1807288BF34
:103CE00000F0004010BD4FF04070E1EE100A704748
:103CF000FF2141EAD050C00570470000CDEBD79BB3
:103D000001000000200100000020DBD44541207CA0
:103D1000C50000200100000020010000002001007B
:103D200000002001000000200100000020A971F423
:103D30004120A971F44120A971F44120A971F441F5
:103D400020010000002001000000200100000020F0
:103D500001000000200100000020010000002001FF
:103D60000000002001000000200100000020A971D7
:103D7000F44120A971F44120A971F44120A971F402
:103D80004120A971F44120A971F44120A971F441A5
:103D900020A971F44120010000002000BC3D000872
:103DA0000000002034000000C4010008F03D0008BD
:103DB00034000020D41D0000E001000800000100D4
:103DC00000000000000000000000000000000000F3
:103DD00000000000000000000000000000000000E3
:103DE00000000000010203040102030406070809A1
:040000050800018965
:00000001FF
